S017000050524F594543544F3270726F6772612E73726563DB
S11300000C9434000C9451000C9451000C946D0029
S11300100C9451000C9451000C9451000C94510018
S11300200C9451000C9451000C9451000C94510008
S11300300C9451000C9451000C9451000C945100F8
S11300400C9451000C9451000C94C0000C94510079
S11300500C9451000C9451000C9451000C945100D8
S11300600C9451000C94510011241FBECFEFD8E022
S1130070DEBFCDBF11E0A0E0B1E0E2EEF3E102C0EB
S113008005900D92A834B107D9F721E0A8E4B1E0B6
S113009001C01D92AE37B207E1F70E94A2030C948F
S11300A0EF090C94000084B184B985B1816385B9EA
S11300B087B187B988B18F6088B987B1806387B900
S11300C08FEF8AB9E8E6F0E0808181608083EBE617
S11300D0F0E080818163808308951F920F920FB6B0
S11300E00F9211248F939F9318990AC080917001E5
S11300F0909171010196909371018093700139C0C0
S11301001C991BC080916E0190916F0105973CF47E
S113011081E090E090934B0180934A0104C01092D7
S11301206F0110926E0180916E0190916F010196A2
S113013090936F0180936E011CC01D991AC0809129
S11301406C0190916D0105973CF481E090E09093EF
S113015049018093480104C010926D0110926C0112
S113016080916C0190916D01019690936D01809343
S11301706C019F918F910F900FBE0F901F90189557
S11301801F920F920FB60F9211248F938091C60085
S113019080937D018091C00085FFFCCF80917D011B
S11301A08093C6008F910F900FBE0F901F901895EB
S11301B0ECE7F0E080818064808380818F778083A6
S11301C080818F7D8083EAE7F0E08081876080838F
S11301D08081806880830895ECE7F0E09081907FCF
S11301E0892B8083EAE7F0E08081806480838091BA
S11301F07A0086FDFCCF8091780090917900089573
S11302008F929F92AF92BF92CF92DF92EF92FF9222
S113021080E00E94EC00BC0180E090E00E94D005E8
S1130220609368017093690180936A0190936B01F4
S11302300E944F048FE19EE40197F1F700C0000093
S113024081E00E94EC00BC0180E090E00E94D005B7
S113025060936401709365018093660190936701D4
S11302600E9482048FE19EE40197F1F700C0000030
S113027082E00E94EC00BC0180E090E00E94D00586
S113028060936001709361018093620190936301B4
S113029083E00E94EC00BC0180E090E00E94D00565
S11302A06B017C0160935C0170935D0180935E013E
S11302B090935F018090600190906101A090620131
S11302C0B090630120E030E048EC52E4C501B40191
S11302D00E942305181624F080E00E94CE0314C067
S11302E020E030E048EC52E4C701B6010E94230547
S11302F0181654F0C501B4010E94A105862F0E946E
S1130300CE0380E00E94D103C0905C01D0905D01D7
S1130310E0905E01F0905F0120E030E048EC52E4B0
S1130320C701B6010E942305181624F080E00E943C
S1130330D1031AC0609160017091610180916201E2
S11303409091630120E030E048EC52E40E942305E0
S1130350181654F0C701B6010E94A105862F0E9409
S1130360D10380E00E94CE03FF90EF90DF90CF9006
S1130370BF90AF909F908F9008958AB18E7F8AB975
S11303808AB182608AB9E0ECF0E0108280818260F8
S11303908083E1ECF0E0108280818068808380813A
S11303A080618083808188608083E2ECF0E0108249
S11303B086E080838FEC90E09093C5008093C40026
S11303C00895AC0120E007C09091C00095FFFCCFD8
S11303D03093C6002F5FFA01E20FF11D3081311115
S11303E0F3CF08950F931F93CF93DF938091700100
S11303F0909171018130910509F4D6C08230910544
S113040009F490C1892B09F094C188B1806288B93C
S113041088B18F7E88B90E94000180914A01909131
S11304204B01019709F089C16091680170916901DC
S113043080916A0190916B010E949A0560935A0120
S113044070935B0180916E0190916F010E94AA09E3
S113045060916401709165018091660190916701DA
S11304600E949A05609358017093590180916E011E
S113047090916F010A960E94AA096091600170919F
S1130480610180916201909163010E949A056093D9
S113049056017093570180916E0190916F014496BB
S11304A00E94AA0960915C0170915D0180915E01D6
S11304B090915F010E949A056093540170935501D5
S11304C080916E0190916F014E960E94AA0910923C
S11304D04B0110924A0180915B018F9380915A01E4
S11304E08F9300E011E01F930F93C2E7D1E0DF93F5
S11304F0CF930E94EF0683E091E00E94E101CE01D8
S11305000E94E1018DE091E00E94E1018091590196
S11305108F93809158018F931F930F93DF93CF9301
S11305200E94EF068FE091E00E94E101CE010E945B
S1130530E1018DE091E00E94E101809157018F93E8
S1130540809156018F931F930F93DF93CF930E9453
S1130550EF0689E191E00E94E101CE010E94E101F0
S11305608DE091E00E94E101809155018F9380918B
S113057054018F931F930F93DF93CF930E94EF0641
S113058083E291E00E94E101CE010E94E1018DE04D
S113059091E00E94E1018DB79EB748960FB6F8949A
S11305A09EBF0FBE8DBFC9C088B1806188B988B1B4
S11305B08F7D88B98091480190914901019709F094
S11305C090C0C0916C01D0916D01CE010E94A2092E
S11305D0182F90E09093530180935201CE010A9614
S11305E00E94A20990E09093510180935001CE01A2
S11305F044960E94A20990E090934F0180934E018B
S1130600CE014E960E94A20990E090934D018093F2
S11306104C011F921F9300E011E01F930F93C2E758
S1130620D1E0DF93CF930E94EF068DE291E00E9428
S1130630E101CE010E94E1018DE091E00E94E1011F
S1130640809151018F93809150018F931F930F9349
S1130650DF93CF930E94EF0684E391E00E94E101CF
S1130660CE010E94E1018DE091E00E94E1018091C0
S11306704F018F9380914E018F931F930F93DF93BC
S1130680CF930E94EF0684E391E00E94E101CE0142
S11306900E94E1018DE091E00E94E10180914D0111
S11306A08F9380914C018F931F930F93DF93CF937C
S11306B00E94EF0684E391E00E94E101CE010E94D2
S11306C0E1018DE091E00E94E10110924901109254
S11306D048018DB79EB748960FB6F8949EBF0FBEDB
S11306E08DBF6091520170915301072E000C880B4D
S11306F0990B0E94D2050E944F04609150017091A1
S11307005101072E000C880B990B0E94D2050E9400
S1130710820480914E010E94CE0380914C010E947C
S1130720D1030BC088B1806188B988B1806288B96F
S113073004C01092710110927001DF91CF911F914A
S11307400F910895F8940E9453000E94D8000E94CB
S1130750D4030E94B1030E94BD0178940E94F20167
S1130760FDCF8AB188608AB984B1886084B9E0EB2E
S1130770F0E0108280818360808380818068808340
S1130780808180628083E1EBF0E010828081876069
S113079080831092B3001092B40008958093B30044
S11307A008958093B400089584B1866084B910924A
S11307B08500109284008FE39CE9909387008093D6
S11307C08600E0E8F0E080EA8083808182608083B4
S11307D0E1E8F0E088E1808380818260808308958D
S11307E04F925F926F927F92AF92BF92CF92DF92BD
S11307F0EF92FF920F931F93CF93DF93CDB7DEB7A2
S113080028970FB6F894DEBF0FBECDBF29013A0179
S1130810ED82FE820F8318870E94B60469837A836F
S11308208B839C83A6019501698D7A8D8B8D9C8D1C
S11308300E94B6049B01AC0169817A818B819C8101
S11308400E94820669837A838B839C83A30192012D
S1130850C801B7010E94B6049B01AC0169817A8189
S11308608B819C810E9428059B01AC01C601B501C6
S11308700E94B70428960FB6F894DEBF0FBECDBF12
S1130880DF91CF911F910F91FF90EF90DF90CF9068
S1130890BF90AF907F906F905F904F900895AF920C
S11308A0BF92CF92DF92EF92FF920F931F9325E4B2
S11308B02F9326E92F931F921F920F2EA12CB12C58
S11308C0FAE7CF2EF4E4DF2EF02DE12C10ECF12E1C
S11308D00FE714E420E030E0A9010E94F0030F9038
S11308E00F900F900F900E94A10570938900609360
S11308F088001F910F91FF90EF90DF90CF90BF90F1
S1130900AF900895AF92BF92CF92DF92EF92FF9291
S11309100F931F9325E42F932CE12F9320E42F931F
S11309201F920F2EA12CB12CFAE7CF2EF4E4DF2E68
S1130930F02DE12C10ECF12E0FE714E420E030E070
S1130940A9010E94F0030F900F900F900F900E9446
S1130950A10570938B0060938A001F910F91FF9003
S1130960EF90DF90CF90BF90AF9008955058BB2781
S1130970AA270E94CE040C9448060E943A0638F036
S11309800E94410620F039F49F3F19F426F40C9498
S113099037060EF4E095E7FB0C943106E92F0E942C
S11309A0590658F3BA17620773078407950720F0AE
S11309B079F4A6F50C947B060EF4E0950B2EBA2F71
S11309C0A02D0B01B90190010C01CA01A001112451
S11309D0FF27591B99F0593F50F4503E68F11A16FD
S11309E0F040A22F232F342F4427585FF3CF46958E
S11309F037952795A795F0405395C9F77EF41F16B0
S1130A00BA0B620B730B840BBAF09150A1F0FF0F79
S1130A10BB1F661F771F881FC2F70EC0BA0F621F65
S1130A20731F841F48F4879577956795B795F79555
S1130A309E3F08F0B0CF9395880F08F09927EE0FEA
S1130A409795879508950E940D0608F481E008950E
S1130A500E943C050C9448060E94410658F00E94EE
S1130A603A0640F029F45F3F29F00C943106511105
S1130A700C947C060C9437060E94590668F399235B
S1130A80B1F3552391F3951B550BBB27AA27621786
S1130A907307840738F09F5F5F4F220F331F441F93
S1130AA0AA1FA9F335D00E2E3AF0E0E832D09150C7
S1130AB05040E695001CCAF72BD0FE2F29D0660FB4
S1130AC0771F881FBB1F261737074807AB07B0E8F7
S1130AD009F0BB0B802DBF01FF2793585F4F3AF0FD
S1130AE09E3F510578F00C9431060C947C065F3FD0
S1130AF0E4F3983ED4F3869577956795B795F79583
S1130B009F5FC9F7880F911D9695879597F908956A
S1130B10E1E0660F771F881FBB1F62177307840706
S1130B20BA0720F0621B730B840BBA0BEE1F88F715
S1130B30E09508950E94A1056894B1110C947C0677
S1130B4008950E94610688F09F5798F0B92F99275D
S1130B50B751B0F0E1F0660F771F881F991F1AF0A4
S1130B60BA95C9F714C0B13091F00E947B06B1E088
S1130B7008950C947B06672F782F8827B85F39F087
S1130B80B93FCCF3869577956795B395D9F73EF43D
S1130B9090958095709561957F4F8F4F9F4F0895E5
S1130BA0E89409C097FB3EF4909580957095619503
S1130BB07F4F8F4F9F4F9923A9F0F92F96E9BB27B9
S1130BC09395F695879577956795B795F111F8CF35
S1130BD0FAF4BB0F11F460FF1BC06F5F7F4F8F4FA0
S1130BE09F4F16C0882311F096E911C0772321F096
S1130BF09EE8872F762F05C0662371F096E8862F2E
S1130C0070E060E02AF09A95660F771F881FDAF784
S1130C10880F9695879597F90895990F0008550FB1
S1130C20AA0BE0E8FEEF16161706E807F907C0F06E
S1130C3012161306E407F50798F0621B730B840B76
S1130C40950B39F40A2661F0232B242B252B21F450
S1130C5008950A2609F4A140A6958FEF811D811DF0
S1130C60089597F99F6780E870E060E008959FEF2A
S1130C7080EC089500240A9416161706180609062F
S1130C80089500240A9412161306140605060895FE
S1130C90092E0394000C11F4882352F0BB0F40F486
S1130CA0BF2B11F460FF04C06F5F7F4F8F4F9F4FC6
S1130CB0089557FD9058440F551F59F05F3F71F048
S1130CC04795880F97FB991F61F09F3F79F08795AF
S1130CD00895121613061406551FF2CF4695F1DF38
S1130CE008C0161617061806991FF1CF86957105C8
S1130CF0610508940895E894BB2766277727CB01FC
S1130D0097F908950E9495060C9448060E943A06A5
S1130D1038F00E94410620F0952311F00C9431061E
S1130D200C94370611240C947C060E94590670F327
S1130D30959FC1F3950F50E0551F629FF001729F7C
S1130D40BB27F00DB11D639FAA27F00DB11DAA1F8B
S1130D50649F6627B00DA11D661F829F2227B00DD8
S1130D60A11D621F739FB00DA11D621F839FA00D63
S1130D70611D221F749F3327A00D611D231F849FB3
S1130D80600D211D822F762F6A2F11249F5750400A
S1130D909AF0F1F088234AF0EE0FFF1FBB1F661F85
S1130DA0771F881F91505040A9F79E3F510580F04E
S1130DB00C9431060C947C065F3FE4F3983ED4F324
S1130DC0869577956795B795F795E7959F5FC1F7F2
S1130DD0FE2B880F911D9695879597F90895AEE09F
S1130DE0B0E0E5EFF6E00C94C6090D891E8986E0B3
S1130DF08C831A8309838FEF9FE79E838D83AE01D3
S1130E00475E5F4F6F89788DCE0101960E9411076E
S1130E10EF81F885E00FF11F10822E96E4E00C9428
S1130E20E209ABE0B0E0E7E1F7E00C94B8096C014B
S1130E307B018A01FC0117821682838181FFCCC168
S1130E40CE0101963C01F6019381F70193FD859152
S1130E5093FF81917F01882309F4BAC1853239F463
S1130E6093FD859193FF81917F01853229F4B60129
S1130E7090E00E940809E7CF912C212C312CFFE14E
S1130E80F315D8F08B3279F038F4803279F083326C
S1130E90A1F4232D20611DC08D3261F0803369F4EB
S1130EA0232D216016C0832D8260382EE32DE4604B
S1130EB03E2E2AC0F32DF8601DC037FC2DC020ED56
S1130EC0280F2A3040F08E32B9F436FC81C1232D2C
S1130ED02064322E19C036FE06C08AE0989E200D8A
S1130EE01124922E11C0EAE02E9E200D1124222EF0
S1130EF0F32DF0623F2E08C08C3621F4832D8068D8
S1130F00382E02C0883641F4F70193FD859193FF92
S1130F1081917F018111B3CF982F9F7D9554933098
S1130F2028F40C5F1F4F9FE399830DC0833631F083
S1130F30833771F0833509F059C021C0F8018081ED
S1130F4089830E5F1F4F88248394912C530113C00F
S1130F502801F2E04F0E511CF801A080B18036FE4A
S1130F6003C0692D70E002C06FEF7FEFC5010E94DE
S1130F70FD084C018201F32DFF773F2E16C0280196
S1130F8022E0420E511CF801A080B18036FE03C05D
S1130F90692D70E002C06FEF7FEFC5010E94F20877
S1130FA04C01F32DF0683F2E820133FC1BC0822DCF
S1130FB090E088169906B0F4B60180E290E00E94B1
S1130FC008092A94F4CFF50137FC859137FE819105
S1130FD05F01B60190E00E94080921102A9421E0E3
S1130FE0821A91088114910471F7E8C0843611F0D3
S1130FF0893641F5F80137FE07C06081718182812D
S113100093810C5F1F4F08C060817181072E000C13
S1131010880B990B0E5F1F4FF32DFF763F2E97FF22
S113102009C090958095709561957F4F8F4F9F4F24
S1131030F0683F2E2AE030E0A3010E944409882E84
S1131040861845C0853731F4232D2F7EB22E2AE031
S113105030E025C0932D997FB92E8F36C1F018F456
S1131060883579F0B5C0803719F0883721F0B0C0E1
S1131070E92FE061BE2EB4FE0DC0FB2DF460BF2E3F
S113108009C034FE0AC0292F2660B22E06C028E00B
S113109030E005C020E130E002C020E132E0F80198
S11310A0B7FE07C060817181828193810C5F1F4FFD
S11310B006C06081718180E090E00E5F1F4FA30144
S11310C00E944409882E8618FB2DFF773F2E36FE9A
S11310D00DC0232D2E7FA22E891458F434FE0BC08C
S11310E032FC09C0832D8E7EA82E05C0B82CA32CFB
S11310F003C0B82C01C0B92CA4FE0FC0FE01E80D3A
S1131100F11D8081803321F49A2D997EA92E09C086
S1131110A2FE06C0B394B39404C08A2D867809F065
S1131120B394A3FC11C0A0FE06C0B21488F4280C2A
S1131130922C9B180EC0B21460F4B60180E290E0C9
S11311400E940809B394F7CFB21418F42B1802C004
S1131150982C212CA4FE10C0B60180E390E00E94DC
S11311600809A2FE17C0A1FC03C088E790E002C0F2
S113117088E590E0B6010CC08A2D867859F0A1FE6E
S113118002C08BE201C080E2A7FC8DE2B60190E0D0
S11311900E940809891438F4B60180E390E00E94A3
S11311A008099A94F7CF8A94F301E80DF11D808120
S11311B0B60190E00E9408098110F5CF222009F4BD
S11311C042CEB60180E290E00E9408092A94F6CF4C
S11311D0F6018681978102C08FEF9FEF2B96E2E1A3
S11311E00C94D409FC010590615070400110D8F7AB
S11311F0809590958E0F9F1F0895FC01615070405B
S113120001900110D8F7809590958E0F9F1F089537
S11312100F931F93CF93DF93FB01238121FD03C021
S11312208FEF9FEF2CC022FF16C046815781248187
S113123035814217530744F4A081B1819D012F5F8A
S11312403F4F318320838C93268137812F5F3F4F1B
S11312503783268314C08B01EC01FB010084F185E4
S1131260E02D0995892BE1F6D80116968D919C9174
S11312701797019617969C938E931697CE01DF913C
S1131280CF911F910F910895FA01AA27283051F1A7
S1131290203181F1E8946F936E7F6E5F7F4F8F4FA3
S11312A09F4FAF4FB1E03ED0B4E03CD0670F781F02
S11312B0891F9A1FA11D680F791F8A1F911DA11DE7
S11312C06A0F711D811D911DA11D20D009F4689420
S11312D03F912AE0269F11243019305D3193DEF6C8
S11312E0CF010895462F4770405D4193B3E00FD07E
S11312F0C9F7F6CF462F4F70405D4A3318F0495D69
S113130031FD4052419302D0A9F7EACFB4E0A6954B
S11313109795879577956795BA95C9F7009761056D
S1131320710508959B01AC010A2E069457954795C3
S113133037952795BA95C9F7620F731F841F951FB8
S1131340A01D0895F999FECF92BD81BDF89A992701
S113135080B50895262FF999FECF1FBA92BD81BD9D
S113136020BD0FB6F894FA9AF99A0FBE0196089523
S11313702F923F924F925F926F927F928F929F92A1
S1131380AF92BF92CF92DF92EF92FF920F931F938F
S1131390CF93DF93CDB7DEB7CA1BDB0B0FB6F89440
S11313A0DEBF0FBECDBF09942A88398848885F8480
S11313B06E847D848C849B84AA84B984C884DF80F1
S11313C0EE80FD800C811B81AA81B981CE0FD11DD5
S11313D00FB6F894DEBF0FBECDBFED010895F894AB
S10513E0FFCF39
S11313E225640063616E616C20303A20000A006358
S11313F2616E616C20313A200063616E616C20324F
S11314023A200063616E616C20333A200065657096
S1131412313A200056616C6F7220646520766172E5
S10B14226961626C653A200067
S9030000FC
